{
  "abi": [
    {
      "anonymous": false,
      "inputs": [
        {
          "indexed": false,
          "internalType": "address",
          "name": "buyer",
          "type": "address"
        },
        {
          "indexed": false,
          "internalType": "address",
          "name": "seller",
          "type": "address"
        },
        {
          "indexed": false,
          "internalType": "uint256",
          "name": "tokenAmount",
          "type": "uint256"
        },
        {
          "indexed": false,
          "internalType": "uint256",
          "name": "buyingPrice",
          "type": "uint256"
        }
      ],
      "name": "PurchaseLog",
      "type": "event"
    },
    {
      "anonymous": false,
      "inputs": [
        {
          "indexed": false,
          "internalType": "string",
          "name": "tokenName",
          "type": "string"
        },
        {
          "indexed": false,
          "internalType": "string",
          "name": "tokenSymbol",
          "type": "string"
        },
        {
          "indexed": false,
          "internalType": "address",
          "name": "tokenAddress",
          "type": "address"
        },
        {
          "indexed": false,
          "internalType": "address",
          "name": "ownerAddress",
          "type": "address"
        }
      ],
      "name": "RegisterToken",
      "type": "event"
    },
    {
      "anonymous": false,
      "inputs": [
        {
          "indexed": false,
          "internalType": "address",
          "name": "seller",
          "type": "address"
        },
        {
          "indexed": false,
          "internalType": "address",
          "name": "buyer",
          "type": "address"
        },
        {
          "indexed": false,
          "internalType": "uint256",
          "name": "tokenAmount",
          "type": "uint256"
        },
        {
          "indexed": false,
          "internalType": "uint256",
          "name": "sellingPrice",
          "type": "uint256"
        }
      ],
      "name": "SellLog",
      "type": "event"
    },
    {
      "inputs": [],
      "name": "MAX_REWARD",
      "outputs": [
        {
          "internalType": "uint256",
          "name": "",
          "type": "uint256"
        }
      ],
      "stateMutability": "view",
      "type": "function"
    },
    {
      "inputs": [],
      "name": "SCALING_FACTOR",
      "outputs": [
        {
          "internalType": "uint256",
          "name": "",
          "type": "uint256"
        }
      ],
      "stateMutability": "view",
      "type": "function"
    },
    {
      "inputs": [
        {
          "internalType": "uint256",
          "name": "listingId",
          "type": "uint256"
        },
        {
          "internalType": "uint256",
          "name": "tokenAmount",
          "type": "uint256"
        }
      ],
      "name": "buyResellTokens",
      "outputs": [],
      "stateMutability": "payable",
      "type": "function"
    },
    {
      "inputs": [],
      "name": "getAllTokens",
      "outputs": [
        {
          "components": [
            {
              "internalType": "string",
              "name": "tokenName",
              "type": "string"
            },
            {
              "internalType": "string",
              "name": "tokenSymbol",
              "type": "string"
            },
            {
              "internalType": "uint256",
              "name": "tokenPrice",
              "type": "uint256"
            },
            {
              "internalType": "address",
              "name": "sellerAddress",
              "type": "address"
            },
            {
              "internalType": "address",
              "name": "tokenAddress",
              "type": "address"
            }
          ],
          "internalType": "struct Marketplace.TokenData[]",
          "name": "",
          "type": "tuple[]"
        }
      ],
      "stateMutability": "view",
      "type": "function"
    },
    {
      "inputs": [],
      "name": "getListings",
      "outputs": [
        {
          "components": [
            {
              "internalType": "address",
              "name": "seller",
              "type": "address"
            },
            {
              "internalType": "address",
              "name": "tokenAddress",
              "type": "address"
            },
            {
              "internalType": "uint256",
              "name": "tokenAmount",
              "type": "uint256"
            },
            {
              "internalType": "uint256",
              "name": "pricePerToken",
              "type": "uint256"
            },
            {
              "internalType": "bool",
              "name": "sold",
              "type": "bool"
            }
          ],
          "internalType": "struct Marketplace.Listing[]",
          "name": "",
          "type": "tuple[]"
        }
      ],
      "stateMutability": "view",
      "type": "function"
    },
    {
      "inputs": [
        {
          "internalType": "address",
          "name": "tokenAddress",
          "type": "address"
        },
        {
          "internalType": "uint256",
          "name": "tokenAmount",
          "type": "uint256"
        },
        {
          "internalType": "uint256",
          "name": "_pricePerToken",
          "type": "uint256"
        }
      ],
      "name": "listTokenForSale",
      "outputs": [],
      "stateMutability": "nonpayable",
      "type": "function"
    },
    {
      "inputs": [
        {
          "internalType": "uint256",
          "name": "",
          "type": "uint256"
        }
      ],
      "name": "listings",
      "outputs": [
        {
          "internalType": "address",
          "name": "seller",
          "type": "address"
        },
        {
          "internalType": "address",
          "name": "tokenAddress",
          "type": "address"
        },
        {
          "internalType": "uint256",
          "name": "tokenAmount",
          "type": "uint256"
        },
        {
          "internalType": "uint256",
          "name": "pricePerToken",
          "type": "uint256"
        },
        {
          "internalType": "bool",
          "name": "sold",
          "type": "bool"
        }
      ],
      "stateMutability": "view",
      "type": "function"
    },
    {
      "inputs": [
        {
          "internalType": "address",
          "name": "_sellerAddress",
          "type": "address"
        },
        {
          "internalType": "uint256",
          "name": "_tokenAmount",
          "type": "uint256"
        }
      ],
      "name": "purchaseToken",
      "outputs": [],
      "stateMutability": "payable",
      "type": "function"
    },
    {
      "inputs": [
        {
          "internalType": "address",
          "name": "newReceiver",
          "type": "address"
        },
        {
          "internalType": "uint256",
          "name": "amount",
          "type": "uint256"
        }
      ],
      "name": "redeemRewards",
      "outputs": [],
      "stateMutability": "nonpayable",
      "type": "function"
    },
    {
      "inputs": [
        {
          "internalType": "string",
          "name": "_name",
          "type": "string"
        },
        {
          "internalType": "string",
          "name": "_symbol",
          "type": "string"
        }
      ],
      "name": "registerToken",
      "outputs": [],
      "stateMutability": "payable",
      "type": "function"
    },
    {
      "inputs": [
        {
          "internalType": "uint256",
          "name": "listingId",
          "type": "uint256"
        }
      ],
      "name": "removeListingAndRefund",
      "outputs": [],
      "stateMutability": "nonpayable",
      "type": "function"
    },
    {
      "inputs": [
        {
          "internalType": "address",
          "name": "_tokenAddress",
          "type": "address"
        },
        {
          "internalType": "uint256",
          "name": "_tokenAmount",
          "type": "uint256"
        }
      ],
      "name": "sellToken",
      "outputs": [],
      "stateMutability": "payable",
      "type": "function"
    },
    {
      "inputs": [
        {
          "internalType": "address",
          "name": "",
          "type": "address"
        }
      ],
      "name": "sellerRewards",
      "outputs": [
        {
          "internalType": "uint256",
          "name": "",
          "type": "uint256"
        }
      ],
      "stateMutability": "view",
      "type": "function"
    },
    {
      "inputs": [
        {
          "internalType": "address",
          "name": "",
          "type": "address"
        }
      ],
      "name": "sellerTokenAddresses",
      "outputs": [
        {
          "internalType": "address",
          "name": "",
          "type": "address"
        }
      ],
      "stateMutability": "view",
      "type": "function"
    },
    {
      "inputs": [
        {
          "internalType": "uint256",
          "name": "",
          "type": "uint256"
        }
      ],
      "name": "tokens",
      "outputs": [
        {
          "internalType": "string",
          "name": "tokenName",
          "type": "string"
        },
        {
          "internalType": "string",
          "name": "tokenSymbol",
          "type": "string"
        },
        {
          "internalType": "uint256",
          "name": "tokenPrice",
          "type": "uint256"
        },
        {
          "internalType": "address",
          "name": "sellerAddress",
          "type": "address"
        },
        {
          "internalType": "address",
          "name": "tokenAddress",
          "type": "address"
        }
      ],
      "stateMutability": "view",
      "type": "function"
    }
  ],
  "bytecode": {
    "object": "0x608060405234801561001057600080fd5b50612df2806100206000396000f3fe608060405260043610620000fb5760003560e01c8063c964959c1162000095578063ef4cadc51162000060578063ef4cadc5146200030d578063f1b2d6a31462000325578063f464e7db146200034c578063fec159e1146200036357600080fd5b8063c964959c1462000251578063ce20d4b31462000276578063d8ecc77b146200028d578063de74e57b14620002b257600080fd5b80634f64b2be11620000d65780634f64b2be146200017057806376d413d814620001a8578063992ea45b14620001cd5780639b2afeba14620001fe57600080fd5b80630e1505e014620001005780631cc2c91114620001305780632a5c792a1462000149575b600080fd5b3480156200010d57600080fd5b506200011d6611c37937e0800081565b6040519081526020015b60405180910390f35b6200014762000141366004620019b8565b6200037a565b005b3480156200015657600080fd5b5062000161620007f5565b60405162000127919062001a2d565b3480156200017d57600080fd5b50620001956200018f36600462001ae9565b620009bc565b6040516200012795949392919062001b03565b348015620001b557600080fd5b5062000147620001c7366004620019b8565b62000b30565b348015620001da57600080fd5b506200011d620001ec36600462001b54565b60036020526000908152604090205481565b3480156200020b57600080fd5b50620002386200021d36600462001b54565b6000602081905290815260409020546001600160a01b031681565b6040516001600160a01b03909116815260200162000127565b3480156200025e57600080fd5b50620001476200027036600462001b79565b62000c1f565b620001476200028736600462001c5a565b62000e74565b3480156200029a57600080fd5b5062000147620002ac36600462001ae9565b620010c0565b348015620002bf57600080fd5b50620002d7620002d136600462001ae9565b62001334565b604080516001600160a01b0396871681529590941660208601529284019190915260608301521515608082015260a00162000127565b3480156200031a57600080fd5b506200011d613e8081565b3480156200033257600080fd5b506200033d62001385565b60405162000127919062001cc5565b620001476200035d366004620019b8565b6200141c565b620001476200037436600462001d43565b6200174e565b6001600160a01b038083166000908152602081905260409020541680620003f85760405162461bcd60e51b815260206004820152602760248201527f53656c6c657220646f6573206e6f74206861766520612072656769737465726560448201526632103a37b5b2b760c91b60648201526084015b60405180910390fd5b60008190506000816001600160a01b031663c4e41b226040518163ffffffff1660e01b8152600401602060405180830381865afa1580156200043e573d6000803e3d6000fd5b505050506040513d601f19601f8201168201806040525081019062000464919062001d66565b9050801562000664576000613e806200047e838062001d96565b6200049290670de0b6b3a764000062001d96565b6200049e919062001db6565b90506000613e80620004b260018562001dd9565b620004bf60018662001dd9565b620004cb919062001d96565b620004df90670de0b6b3a764000062001d96565b620004eb919062001db6565b90506000620004fb828462001dd9565b90506611c37937e080008111156200051757506611c37937e080005b6001600160a01b038816600090815260036020526040812080548392906200054190849062001def565b90915550506040516340c10f1960e01b8152336004820152602481018890526001600160a01b038716906340c10f1990604401600060405180830381600087803b1580156200058f57600080fd5b505af1158015620005a4573d6000803e3d6000fd5b50505050670de0b6b3a76400008784620005bf919062001d96565b620005cb919062001db6565b3410156200061c5760405162461bcd60e51b815260206004820152601960248201527f496e636f72726563742070726963652070657220746f6b656e000000000000006044820152606401620003ef565b7f528b5f4754c711e4d3ea1871d2dd046ab7bda6233d1ddb10ad200fbc21c793db3389898660405162000653949392919062001e05565b60405180910390a1505050620007ee565b6040516340c10f1960e01b8152336004820152602481018590526001600160a01b038416906340c10f1990604401600060405180830381600087803b158015620006ad57600080fd5b505af1158015620006c2573d6000803e3d6000fd5b5050604051630810482f60e21b81526001600160a01b038681166004830152600093508516915063204120bc90602401602060405180830381865afa15801562000710573d6000803e3d6000fd5b505050506040513d601f19601f8201168201806040525081019062000736919062001d66565b6200074390600162001d96565b905062000751858262001d96565b341015620007ad5760405162461bcd60e51b815260206004820152602260248201527f696e73756666696369656e742045746820676976656e20746f20636f6e74726160448201526118dd60f21b6064820152608401620003ef565b7f528b5f4754c711e4d3ea1871d2dd046ab7bda6233d1ddb10ad200fbc21c793db33878784604051620007e4949392919062001e05565b60405180910390a1505b5050505050565b60606001805480602002602001604051908101604052809291908181526020016000905b82821015620009b357838290600052602060002090600502016040518060a00160405290816000820180546200084f9062001e2e565b80601f01602080910402602001604051908101604052809291908181526020018280546200087d9062001e2e565b8015620008ce5780601f10620008a257610100808354040283529160200191620008ce565b820191906000526020600020905b815481529060010190602001808311620008b057829003601f168201915b50505050508152602001600182018054620008e99062001e2e565b80601f0160208091040260200160405190810160405280929190818152602001828054620009179062001e2e565b8015620009685780601f106200093c5761010080835404028352916020019162000968565b820191906000526020600020905b8154815290600101906020018083116200094a57829003601f168201915b5050509183525050600282015460208083019190915260038301546001600160a01b039081166040840152600490930154909216606090910152908252600192909201910162000819565b50505050905090565b60018181548110620009cd57600080fd5b9060005260206000209060050201600091509050806000018054620009f29062001e2e565b80601f016020809104026020016040519081016040528092919081815260200182805462000a209062001e2e565b801562000a715780601f1062000a455761010080835404028352916020019162000a71565b820191906000526020600020905b81548152906001019060200180831162000a5357829003601f168201915b50505050509080600101805462000a889062001e2e565b80601f016020809104026020016040519081016040528092919081815260200182805462000ab69062001e2e565b801562000b075780601f1062000adb5761010080835404028352916020019162000b07565b820191906000526020600020905b81548152906001019060200180831162000ae957829003601f168201915b5050505060028301546003840154600490940154929390926001600160a01b0391821692501685565b3360009081526003602052604090205481111562000b915760405162461bcd60e51b815260206004820152601e60248201527f496e73756666696369656e74207265776172647320746f2072656465656d00006044820152606401620003ef565b60006001600160a01b0383161562000baa578262000bac565b335b6040519091506001600160a01b0382169083156108fc029084906000818181858888f1935050505015801562000be6573d6000803e3d6000fd5b5062000bf482600162001d96565b336000908152600360205260408120805490919062000c1590849062001dd9565b9091555050505050565b6040516370a0823160e01b8152336004820152839083906001600160a01b038316906370a0823190602401602060405180830381865afa15801562000c68573d6000803e3d6000fd5b505050506040513d601f19601f8201168201806040525081019062000c8e919062001d66565b101562000cde5760405162461bcd60e51b815260206004820152601960248201527f496e73756666696369656e7420746f6b656e20616d6f756e74000000000000006044820152606401620003ef565b6040805160a0810182523381526001600160a01b03861660208201529081018490526002906060810162000d1485600162001d96565b81526000602091820181905283546001808201865594825290829020835160059092020180546001600160a01b03199081166001600160a01b03938416178255928401519481018054909316948216949094179091556040808301516002850155606083015160038501556080909201516004938401805460ff1916911515919091179055905163e1f21c6760e01b815233928101929092523060248301526044820185905282169063e1f21c6790606401600060405180830381600087803b15801562000de157600080fd5b505af115801562000df6573d6000803e3d6000fd5b50506040516323b872dd60e01b8152336004820152306024820152604481018690526001600160a01b03841692506323b872dd91506064016020604051808303816000875af115801562000e4e573d6000803e3d6000fd5b505050506040513d601f19601f82011682018060405250810190620007ee919062001e6a565b336000908152602081905260409020546001600160a01b03161562000ed15760405162461bcd60e51b8152602060048201526012602482015271105b1c9958591e481c9959da5cdd195c995960721b6044820152606401620003ef565b6000828260405162000ee3906200198d565b62000ef092919062001e8e565b604051809103906000f08015801562000f0d573d6000803e3d6000fd5b503360009081526020818152604080832080546001600160a01b0319166001600160a01b038616908117909155815160a0810183528881529283018790528151630810482f60e21b815260048101829052949550929391929083019163204120bc90602401602060405180830381865afa15801562000f90573d6000803e3d6000fd5b505050506040513d601f19601f8201168201806040525081019062000fb6919062001d66565b81523360208201526001600160a01b0384166040909101526001805480820182556000919091528151919250829160059091027fb10e2d527612073b26eecdfd717e6a320cf44b4afac2b0732d9fcbe2b7fa0cf6019081906200101a908262001f15565b506020820151600182019062001031908262001f15565b50604082810151600283015560608301516003830180546001600160a01b03199081166001600160a01b039384161790915560809094015160049093018054909416921691909117909155517f6fb05e3dba0274ac1c3246aff35e4f76acfc2c51be963e6a0e9333b136bb0a8590620010b290869086908690339062001fe2565b60405180910390a150505050565b60025481106200110c5760405162461bcd60e51b8152602060048201526016602482015275131a5cdd1a5b99c8191bd95cc81b9bdd08195e1a5cdd60521b6044820152606401620003ef565b6002818154811062001122576200112262002030565b600091825260209091206004600590920201015460ff1615620011825760405162461bcd60e51b8152602060048201526017602482015276131a5cdd1a5b99c81a5cc8185b1c9958591e481cdbdb19604a1b6044820152606401620003ef565b336001600160a01b031660028281548110620011a257620011a262002030565b60009182526020909120600590910201546001600160a01b031614620012175760405162461bcd60e51b8152602060048201526024808201527f4f6e6c7920746865206c697374696e67206f776e65722063616e2072656d6f7660448201526319481a5d60e21b6064820152608401620003ef565b6000600282815481106200122f576200122f62002030565b60009182526020822060016005909202010154600280546001600160a01b039092169350908490811062001267576200126762002030565b906000526020600020906005020160020154905060016002848154811062001293576200129362002030565b600091825260209091206005909102016004908101805460ff19169215159290921790915560405163a9059cbb60e01b81523391810191909152602481018290526001600160a01b0383169063a9059cbb906044016020604051808303816000875af115801562001308573d6000803e3d6000fd5b505050506040513d601f19601f820116820180604052508101906200132e919062001e6a565b50505050565b600281815481106200134557600080fd5b6000918252602090912060059091020180546001820154600283015460038401546004909401546001600160a01b03938416955091909216929060ff1685565b60606002805480602002602001604051908101604052809291908181526020016000905b82821015620009b35760008481526020908190206040805160a0810182526005860290920180546001600160a01b03908116845260018083015490911684860152600282015492840192909252600381015460608401526004015460ff16151560808301529083529092019101620013a9565b60008290506000816001600160a01b031663c4e41b226040518163ffffffff1660e01b8152600401602060405180830381865afa15801562001462573d6000803e3d6000fd5b505050506040513d601f19601f8201168201806040525081019062001488919062001d66565b90506000613e806200149c60018462001dd9565b620014a960018562001dd9565b620014b5919062001d96565b620014c990670de0b6b3a764000062001d96565b620014d5919062001db6565b90506001600160a01b0385166200153b5760405162461bcd60e51b8152602060048201526024808201527f73656c6c657220646f65736e277420686176652072656769737465726564207460448201526337b5b2b760e11b6064820152608401620003ef565b6040516370a0823160e01b815233600482015284906001600160a01b038516906370a0823190602401602060405180830381865afa15801562001582573d6000803e3d6000fd5b505050506040513d601f19601f82011682018060405250810190620015a8919062001d66565b1015620016025760405162461bcd60e51b815260206004820152602160248201527f427579657220646f6573206e6f74206861766520656e6f75676820746f6b656e6044820152607360f81b6064820152608401620003ef565b60008411620016545760405162461bcd60e51b815260206004820152601e60248201527f746f6b656e20616d6f756e742073686f756c646e2774206265207a65726f00006044820152606401620003ef565b604051632770a7eb60e21b8152336004820152602481018590526001600160a01b03861690639dc29fac90604401600060405180830381600087803b1580156200169d57600080fd5b505af1158015620016b2573d6000803e3d6000fd5b503392506108fc9150670de0b6b3a76400009050620016d2878562001d96565b620016de919062001db6565b6040518115909202916000818181858888f1935050505015801562001707573d6000803e3d6000fd5b507f608358497e8c2880730d9da2f7b0024254c51abf5a8d3153815a25f71feb0012338686846040516200173f949392919062001e05565b60405180910390a15050505050565b60025482106200179a5760405162461bcd60e51b8152602060048201526016602482015275131a5cdd1a5b99c8191bd95cc81b9bdd08195e1a5cdd60521b6044820152606401620003ef565b60028281548110620017b057620017b062002030565b600091825260209091206004600590920201015460ff1615620018105760405162461bcd60e51b8152602060048201526017602482015276131a5cdd1a5b99c81a5cc8185b1c9958591e481cdbdb19604a1b6044820152606401620003ef565b806002838154811062001827576200182762002030565b90600052602060002090600502016003015462001845919062001d96565b6200185290600162001d96565b341015620018af5760405162461bcd60e51b8152602060048201526024808201527f496e73756666696369656e74206d6f6e657920746f207075726368617365207460448201526337b5b2b760e11b6064820152608401620003ef565b60028281548110620018c557620018c562002030565b600091825260209091206005909102016001015460405163a9059cbb60e01b8152336004820152602481018390526001600160a01b039091169063a9059cbb906044016020604051808303816000875af115801562001928573d6000803e3d6000fd5b505050506040513d601f19601f820116820180604052508101906200194e919062001e6a565b5060016002838154811062001967576200196762002030565b60009182526020909120600590910201600401805460ff19169115159190911790555050565b610d76806200204783390190565b80356001600160a01b0381168114620019b357600080fd5b919050565b60008060408385031215620019cc57600080fd5b620019d7836200199b565b946020939093013593505050565b6000815180845260005b8181101562001a0d57602081850181015186830182015201620019ef565b506000602082860101526020601f19601f83011685010191505092915050565b600060208083018184528085518083526040925060408601915060408160051b87010184880160005b8381101562001adb57603f19898403018552815160a0815181865262001a7f82870182620019e5565b915050888201518582038a87015262001a998282620019e5565b838a0151878b01526060808501516001600160a01b03908116918901919091526080948501511693909601929092525050938601939086019060010162001a56565b509098975050505050505050565b60006020828403121562001afc57600080fd5b5035919050565b60a08152600062001b1860a0830188620019e5565b828103602084015262001b2c8188620019e5565b604084019690965250506001600160a01b039283166060820152911660809091015292915050565b60006020828403121562001b6757600080fd5b62001b72826200199b565b9392505050565b60008060006060848603121562001b8f57600080fd5b62001b9a846200199b565b95602085013595506040909401359392505050565b634e487b7160e01b600052604160045260246000fd5b600082601f83011262001bd757600080fd5b813567ffffffffffffffff8082111562001bf55762001bf562001baf565b604051601f8301601f19908116603f0116810190828211818310171562001c205762001c2062001baf565b8160405283815286602085880101111562001c3a57600080fd5b836020870160208301376000602085830101528094505050505092915050565b6000806040838503121562001c6e57600080fd5b823567ffffffffffffffff8082111562001c8757600080fd5b62001c958683870162001bc5565b9350602085013591508082111562001cac57600080fd5b5062001cbb8582860162001bc5565b9150509250929050565b602080825282518282018190526000919060409081850190868401855b8281101562001d3657815180516001600160a01b03908116865287820151168786015285810151868601526060808201519086015260809081015115159085015260a0909301929085019060010162001ce2565b5091979650505050505050565b6000806040838503121562001d5757600080fd5b50508035926020909101359150565b60006020828403121562001d7957600080fd5b5051919050565b634e487b7160e01b600052601160045260246000fd5b808202811582820484141762001db05762001db062001d80565b92915050565b60008262001dd457634e487b7160e01b600052601260045260246000fd5b500490565b8181038181111562001db05762001db062001d80565b8082018082111562001db05762001db062001d80565b6001600160a01b0394851681529290931660208301526040820152606081019190915260800190565b600181811c9082168062001e4357607f821691505b60208210810362001e6457634e487b7160e01b600052602260045260246000fd5b50919050565b60006020828403121562001e7d57600080fd5b8151801515811462001b7257600080fd5b60408152600062001ea36040830185620019e5565b828103602084015262001eb78185620019e5565b95945050505050565b601f82111562001f10576000816000526020600020601f850160051c8101602086101562001eeb5750805b601f850160051c820191505b8181101562001f0c5782815560010162001ef7565b5050505b505050565b815167ffffffffffffffff81111562001f325762001f3262001baf565b62001f4a8162001f43845462001e2e565b8462001ec0565b602080601f83116001811462001f82576000841562001f695750858301515b600019600386901b1c1916600185901b17855562001f0c565b600085815260208120601f198616915b8281101562001fb35788860151825594840194600190910190840162001f92565b508582101562001fd25787850151600019600388901b60f8161c191681555b5050505050600190811b01905550565b60808152600062001ff76080830187620019e5565b82810360208401526200200b8187620019e5565b6001600160a01b03958616604085015293909416606090920191909152509392505050565b634e487b7160e01b600052603260045260246000fdfe60806040523480156200001157600080fd5b5060405162000d7638038062000d76833981016040819052620000349162000150565b818160036200004483826200024b565b5060046200005382826200024b565b5050600580546001600160a01b031916331790555050306000908152600660205260409020652d79883d200090555062000317565b634e487b7160e01b600052604160045260246000fd5b600082601f830112620000b057600080fd5b81516001600160401b0380821115620000cd57620000cd62000088565b604051601f8301601f19908116603f01168101908282118183101715620000f857620000f862000088565b81604052838152602092508660208588010111156200011657600080fd5b600091505b838210156200013a57858201830151818301840152908201906200011b565b6000602085830101528094505050505092915050565b600080604083850312156200016457600080fd5b82516001600160401b03808211156200017c57600080fd5b6200018a868387016200009e565b93506020850151915080821115620001a157600080fd5b50620001b0858286016200009e565b9150509250929050565b600181811c90821680620001cf57607f821691505b602082108103620001f057634e487b7160e01b600052602260045260246000fd5b50919050565b601f82111562000246576000816000526020600020601f850160051c81016020861015620002215750805b601f850160051c820191505b8181101562000242578281556001016200022d565b5050505b505050565b81516001600160401b0381111562000267576200026762000088565b6200027f81620002788454620001ba565b84620001f6565b602080601f831160018114620002b757600084156200029e5750858301515b600019600386901b1c1916600185901b17855562000242565b600085815260208120601f198616915b82811015620002e857888601518255948401946001909101908401620002c7565b5085821015620003075787850151600019600388901b60f8161c191681555b5050505050600190811b01905550565b610a4f80620003276000396000f3fe608060405234801561001057600080fd5b50600436106100ea5760003560e01c806370a082311161008c578063a9059cbb11610066578063a9059cbb146101dd578063c4e41b22146101f0578063dd62ed3e146101f8578063e1f21c671461023157600080fd5b806370a082311461019957806395d89b41146101c25780639dc29fac146101ca57600080fd5b8063204120bc116100c8578063204120bc1461014257806323b872dd14610162578063313ce5671461017557806340c10f191461018457600080fd5b806306fdde03146100ef578063095ea7b31461010d57806318160ddd14610130575b600080fd5b6100f7610244565b6040516101049190610898565b60405180910390f35b61012061011b366004610903565b6102d6565b6040519015158152602001610104565b6002545b604051908152602001610104565b61013461015036600461092d565b60066020526000908152604090205481565b61012061017036600461094f565b6102f0565b60405160128152602001610104565b610197610192366004610903565b610314565b005b6101346101a736600461092d565b6001600160a01b031660009081526020819052604090205490565b6100f7610404565b6101976101d8366004610903565b610413565b6101206101eb366004610903565b610511565b61013461051f565b61013461020636600461098b565b6001600160a01b03918216600090815260016020908152604080832093909416825291909152205490565b61019761023f36600461094f565b61052f565b606060038054610253906109be565b80601f016020809104026020016040519081016040528092919081815260200182805461027f906109be565b80156102cc5780601f106102a1576101008083540402835291602001916102cc565b820191906000526020600020905b8154815290600101906020018083116102af57829003601f168201915b5050505050905090565b6000336102e481858561053f565b60019150505b92915050565b6000336102fe85828561054c565b6103098585856105ca565b506001949350505050565b6005546001600160a01b031633146103635760405162461bcd60e51b815260206004820152600d60248201526c2737ba103a34329037bbb732b960991b60448201526064015b60405180910390fd5b600081116103b35760405162461bcd60e51b815260206004820152601d60248201527f416d6f756e74206d7573742062652067726561746572207468616e2030000000604482015260640161035a565b6103bd8282610629565b604080516001600160a01b0384168152602081018390527f0f6798a560793a54c3bcfe86a93cde1e73087d944c0ea20544137d412139688591015b60405180910390a15050565b606060048054610253906109be565b600081116104635760405162461bcd60e51b815260206004820152601d60248201527f416d6f756e74206d7573742062652067726561746572207468616e2030000000604482015260640161035a565b80610483836001600160a01b031660009081526020819052604090205490565b10156104c85760405162461bcd60e51b8152602060048201526014602482015273496e73756666696369656e742062616c616e636560601b604482015260640161035a565b6104d28282610663565b604080516001600160a01b0384168152602081018390527fcc16f5dbb4873280815c1ee09dbd06736cffcc184412cf7a71a0fdb75d397ca591016103f8565b6000336102e48185856105ca565b600061052a60025490565b905090565b61053a83838361053f565b505050565b61053a8383836001610699565b6001600160a01b0383811660009081526001602090815260408083209386168352929052205460001981146105c457818110156105b557604051637dc7a0d960e11b81526001600160a01b0384166004820152602481018290526044810183905260640161035a565b6105c484848484036000610699565b50505050565b6001600160a01b0383166105f457604051634b637e8f60e11b81526000600482015260240161035a565b6001600160a01b03821661061e5760405163ec442f0560e01b81526000600482015260240161035a565b61053a83838361076e565b6001600160a01b0382166106535760405163ec442f0560e01b81526000600482015260240161035a565b61065f6000838361076e565b5050565b6001600160a01b03821661068d57604051634b637e8f60e11b81526000600482015260240161035a565b61065f8260008361076e565b6001600160a01b0384166106c35760405163e602df0560e01b81526000600482015260240161035a565b6001600160a01b0383166106ed57604051634a1406b160e11b81526000600482015260240161035a565b6001600160a01b03808516600090815260016020908152604080832093871683529290522082905580156105c457826001600160a01b0316846001600160a01b03167f8c5be1e5ebec7d5bd14f71427d1e84f3dd0314c0f7b2291e5b200ac8c7c3b9258460405161076091815260200190565b60405180910390a350505050565b6001600160a01b03831661079957806002600082825461078e91906109f8565b9091555061080b9050565b6001600160a01b038316600090815260208190526040902054818110156107ec5760405163391434e360e21b81526001600160a01b0385166004820152602481018290526044810183905260640161035a565b6001600160a01b03841660009081526020819052604090209082900390555b6001600160a01b03821661082757600280548290039055610846565b6001600160a01b03821660009081526020819052604090208054820190555b816001600160a01b0316836001600160a01b03167fddf252ad1be2c89b69c2b068fc378daa952ba7f163c4a11628f55a4df523b3ef8360405161088b91815260200190565b60405180910390a3505050565b60006020808352835180602085015260005b818110156108c6578581018301518582016040015282016108aa565b506000604082860101526040601f19601f8301168501019250505092915050565b80356001600160a01b03811681146108fe57600080fd5b919050565b6000806040838503121561091657600080fd5b61091f836108e7565b946020939093013593505050565b60006020828403121561093f57600080fd5b610948826108e7565b9392505050565b60008060006060848603121561096457600080fd5b61096d846108e7565b925061097b602085016108e7565b9150604084013590509250925092565b6000806040838503121561099e57600080fd5b6109a7836108e7565b91506109b5602084016108e7565b90509250929050565b600181811c908216806109d257607f821691505b6020821081036109f257634e487b7160e01b600052602260045260246000fd5b50919050565b808201808211156102ea57634e487b7160e01b600052601160045260246000fdfea2646970667358221220e418d136d4d5f9b9debac308f82e92cca48679508703a3eae98acebeaa4e155c64736f6c63430008170033a264697066735822122019560273b89390fb73356f8dfd3088e21a63caabcd6706e8a225fad1e18b109764736f6c63430008170033",
    "linkReferences": {}
  },
  "methodIdentifiers": {
    "MAX_REWARD()": "0e1505e0",
    "SCALING_FACTOR()": "ef4cadc5",
    "buyResellTokens(uint256,uint256)": "fec159e1",
    "getAllTokens()": "2a5c792a",
    "getListings()": "f1b2d6a3",
    "listTokenForSale(address,uint256,uint256)": "c964959c",
    "listings(uint256)": "de74e57b",
    "purchaseToken(address,uint256)": "1cc2c911",
    "redeemRewards(address,uint256)": "76d413d8",
    "registerToken(string,string)": "ce20d4b3",
    "removeListingAndRefund(uint256)": "d8ecc77b",
    "sellToken(address,uint256)": "f464e7db",
    "sellerRewards(address)": "992ea45b",
    "sellerTokenAddresses(address)": "9b2afeba",
    "tokens(uint256)": "4f64b2be"
  },
  "id": 5
}