{
  "abi": [
    {
      "inputs": [
        {
          "internalType": "string",
          "name": "name",
          "type": "string"
        },
        {
          "internalType": "string",
          "name": "symbol",
          "type": "string"
        }
      ],
      "stateMutability": "nonpayable",
      "type": "constructor"
    },
    {
      "inputs": [
        {
          "internalType": "address",
          "name": "spender",
          "type": "address"
        },
        {
          "internalType": "uint256",
          "name": "allowance",
          "type": "uint256"
        },
        {
          "internalType": "uint256",
          "name": "needed",
          "type": "uint256"
        }
      ],
      "name": "ERC20InsufficientAllowance",
      "type": "error"
    },
    {
      "inputs": [
        {
          "internalType": "address",
          "name": "sender",
          "type": "address"
        },
        {
          "internalType": "uint256",
          "name": "balance",
          "type": "uint256"
        },
        {
          "internalType": "uint256",
          "name": "needed",
          "type": "uint256"
        }
      ],
      "name": "ERC20InsufficientBalance",
      "type": "error"
    },
    {
      "inputs": [
        {
          "internalType": "address",
          "name": "approver",
          "type": "address"
        }
      ],
      "name": "ERC20InvalidApprover",
      "type": "error"
    },
    {
      "inputs": [
        {
          "internalType": "address",
          "name": "receiver",
          "type": "address"
        }
      ],
      "name": "ERC20InvalidReceiver",
      "type": "error"
    },
    {
      "inputs": [
        {
          "internalType": "address",
          "name": "sender",
          "type": "address"
        }
      ],
      "name": "ERC20InvalidSender",
      "type": "error"
    },
    {
      "inputs": [
        {
          "internalType": "address",
          "name": "spender",
          "type": "address"
        }
      ],
      "name": "ERC20InvalidSpender",
      "type": "error"
    },
    {
      "anonymous": false,
      "inputs": [
        {
          "indexed": true,
          "internalType": "address",
          "name": "owner",
          "type": "address"
        },
        {
          "indexed": true,
          "internalType": "address",
          "name": "spender",
          "type": "address"
        },
        {
          "indexed": false,
          "internalType": "uint256",
          "name": "value",
          "type": "uint256"
        }
      ],
      "name": "Approval",
      "type": "event"
    },
    {
      "anonymous": false,
      "inputs": [
        {
          "indexed": false,
          "internalType": "address",
          "name": "to",
          "type": "address"
        },
        {
          "indexed": false,
          "internalType": "uint256",
          "name": "amount",
          "type": "uint256"
        }
      ],
      "name": "Burn",
      "type": "event"
    },
    {
      "anonymous": false,
      "inputs": [
        {
          "indexed": false,
          "internalType": "address",
          "name": "to",
          "type": "address"
        },
        {
          "indexed": false,
          "internalType": "uint256",
          "name": "amount",
          "type": "uint256"
        }
      ],
      "name": "Mint",
      "type": "event"
    },
    {
      "anonymous": false,
      "inputs": [
        {
          "indexed": true,
          "internalType": "address",
          "name": "from",
          "type": "address"
        },
        {
          "indexed": true,
          "internalType": "address",
          "name": "to",
          "type": "address"
        },
        {
          "indexed": false,
          "internalType": "uint256",
          "name": "value",
          "type": "uint256"
        }
      ],
      "name": "Transfer",
      "type": "event"
    },
    {
      "inputs": [
        {
          "internalType": "address",
          "name": "owner",
          "type": "address"
        },
        {
          "internalType": "address",
          "name": "spender",
          "type": "address"
        }
      ],
      "name": "allowance",
      "outputs": [
        {
          "internalType": "uint256",
          "name": "",
          "type": "uint256"
        }
      ],
      "stateMutability": "view",
      "type": "function"
    },
    {
      "inputs": [
        {
          "internalType": "address",
          "name": "spender",
          "type": "address"
        },
        {
          "internalType": "uint256",
          "name": "value",
          "type": "uint256"
        }
      ],
      "name": "approve",
      "outputs": [
        {
          "internalType": "bool",
          "name": "",
          "type": "bool"
        }
      ],
      "stateMutability": "nonpayable",
      "type": "function"
    },
    {
      "inputs": [
        {
          "internalType": "address",
          "name": "_owner",
          "type": "address"
        },
        {
          "internalType": "address",
          "name": "spender",
          "type": "address"
        },
        {
          "internalType": "uint256",
          "name": "value",
          "type": "uint256"
        }
      ],
      "name": "approve",
      "outputs": [],
      "stateMutability": "nonpayable",
      "type": "function"
    },
    {
      "inputs": [
        {
          "internalType": "address",
          "name": "account",
          "type": "address"
        }
      ],
      "name": "balanceOf",
      "outputs": [
        {
          "internalType": "uint256",
          "name": "",
          "type": "uint256"
        }
      ],
      "stateMutability": "view",
      "type": "function"
    },
    {
      "inputs": [
        {
          "internalType": "address",
          "name": "account",
          "type": "address"
        },
        {
          "internalType": "uint256",
          "name": "amount",
          "type": "uint256"
        }
      ],
      "name": "burn",
      "outputs": [],
      "stateMutability": "nonpayable",
      "type": "function"
    },
    {
      "inputs": [],
      "name": "decimals",
      "outputs": [
        {
          "internalType": "uint8",
          "name": "",
          "type": "uint8"
        }
      ],
      "stateMutability": "view",
      "type": "function"
    },
    {
      "inputs": [],
      "name": "getTotalSupply",
      "outputs": [
        {
          "internalType": "uint256",
          "name": "",
          "type": "uint256"
        }
      ],
      "stateMutability": "view",
      "type": "function"
    },
    {
      "inputs": [
        {
          "internalType": "address",
          "name": "account",
          "type": "address"
        },
        {
          "internalType": "uint256",
          "name": "amount",
          "type": "uint256"
        }
      ],
      "name": "mint",
      "outputs": [],
      "stateMutability": "nonpayable",
      "type": "function"
    },
    {
      "inputs": [],
      "name": "name",
      "outputs": [
        {
          "internalType": "string",
          "name": "",
          "type": "string"
        }
      ],
      "stateMutability": "view",
      "type": "function"
    },
    {
      "inputs": [],
      "name": "symbol",
      "outputs": [
        {
          "internalType": "string",
          "name": "",
          "type": "string"
        }
      ],
      "stateMutability": "view",
      "type": "function"
    },
    {
      "inputs": [
        {
          "internalType": "address",
          "name": "",
          "type": "address"
        }
      ],
      "name": "tokenPrices",
      "outputs": [
        {
          "internalType": "uint256",
          "name": "",
          "type": "uint256"
        }
      ],
      "stateMutability": "view",
      "type": "function"
    },
    {
      "inputs": [],
      "name": "totalSupply",
      "outputs": [
        {
          "internalType": "uint256",
          "name": "",
          "type": "uint256"
        }
      ],
      "stateMutability": "view",
      "type": "function"
    },
    {
      "inputs": [
        {
          "internalType": "address",
          "name": "to",
          "type": "address"
        },
        {
          "internalType": "uint256",
          "name": "value",
          "type": "uint256"
        }
      ],
      "name": "transfer",
      "outputs": [
        {
          "internalType": "bool",
          "name": "",
          "type": "bool"
        }
      ],
      "stateMutability": "nonpayable",
      "type": "function"
    },
    {
      "inputs": [
        {
          "internalType": "address",
          "name": "from",
          "type": "address"
        },
        {
          "internalType": "address",
          "name": "to",
          "type": "address"
        },
        {
          "internalType": "uint256",
          "name": "value",
          "type": "uint256"
        }
      ],
      "name": "transferFrom",
      "outputs": [
        {
          "internalType": "bool",
          "name": "",
          "type": "bool"
        }
      ],
      "stateMutability": "nonpayable",
      "type": "function"
    }
  ],
  "bytecode": {
    "object": "0x60806040523480156200001157600080fd5b5060405162000d7638038062000d76833981016040819052620000349162000150565b818160036200004483826200024b565b5060046200005382826200024b565b5050600580546001600160a01b031916331790555050306000908152600660205260409020652d79883d200090555062000317565b634e487b7160e01b600052604160045260246000fd5b600082601f830112620000b057600080fd5b81516001600160401b0380821115620000cd57620000cd62000088565b604051601f8301601f19908116603f01168101908282118183101715620000f857620000f862000088565b81604052838152602092508660208588010111156200011657600080fd5b600091505b838210156200013a57858201830151818301840152908201906200011b565b6000602085830101528094505050505092915050565b600080604083850312156200016457600080fd5b82516001600160401b03808211156200017c57600080fd5b6200018a868387016200009e565b93506020850151915080821115620001a157600080fd5b50620001b0858286016200009e565b9150509250929050565b600181811c90821680620001cf57607f821691505b602082108103620001f057634e487b7160e01b600052602260045260246000fd5b50919050565b601f82111562000246576000816000526020600020601f850160051c81016020861015620002215750805b601f850160051c820191505b8181101562000242578281556001016200022d565b5050505b505050565b81516001600160401b0381111562000267576200026762000088565b6200027f81620002788454620001ba565b84620001f6565b602080601f831160018114620002b757600084156200029e5750858301515b600019600386901b1c1916600185901b17855562000242565b600085815260208120601f198616915b82811015620002e857888601518255948401946001909101908401620002c7565b5085821015620003075787850151600019600388901b60f8161c191681555b5050505050600190811b01905550565b610a4f80620003276000396000f3fe608060405234801561001057600080fd5b50600436106100ea5760003560e01c806370a082311161008c578063a9059cbb11610066578063a9059cbb146101dd578063c4e41b22146101f0578063dd62ed3e146101f8578063e1f21c671461023157600080fd5b806370a082311461019957806395d89b41146101c25780639dc29fac146101ca57600080fd5b8063204120bc116100c8578063204120bc1461014257806323b872dd14610162578063313ce5671461017557806340c10f191461018457600080fd5b806306fdde03146100ef578063095ea7b31461010d57806318160ddd14610130575b600080fd5b6100f7610244565b6040516101049190610898565b60405180910390f35b61012061011b366004610903565b6102d6565b6040519015158152602001610104565b6002545b604051908152602001610104565b61013461015036600461092d565b60066020526000908152604090205481565b61012061017036600461094f565b6102f0565b60405160128152602001610104565b610197610192366004610903565b610314565b005b6101346101a736600461092d565b6001600160a01b031660009081526020819052604090205490565b6100f7610404565b6101976101d8366004610903565b610413565b6101206101eb366004610903565b610511565b61013461051f565b61013461020636600461098b565b6001600160a01b03918216600090815260016020908152604080832093909416825291909152205490565b61019761023f36600461094f565b61052f565b606060038054610253906109be565b80601f016020809104026020016040519081016040528092919081815260200182805461027f906109be565b80156102cc5780601f106102a1576101008083540402835291602001916102cc565b820191906000526020600020905b8154815290600101906020018083116102af57829003601f168201915b5050505050905090565b6000336102e481858561053f565b60019150505b92915050565b6000336102fe85828561054c565b6103098585856105ca565b506001949350505050565b6005546001600160a01b031633146103635760405162461bcd60e51b815260206004820152600d60248201526c2737ba103a34329037bbb732b960991b60448201526064015b60405180910390fd5b600081116103b35760405162461bcd60e51b815260206004820152601d60248201527f416d6f756e74206d7573742062652067726561746572207468616e2030000000604482015260640161035a565b6103bd8282610629565b604080516001600160a01b0384168152602081018390527f0f6798a560793a54c3bcfe86a93cde1e73087d944c0ea20544137d412139688591015b60405180910390a15050565b606060048054610253906109be565b600081116104635760405162461bcd60e51b815260206004820152601d60248201527f416d6f756e74206d7573742062652067726561746572207468616e2030000000604482015260640161035a565b80610483836001600160a01b031660009081526020819052604090205490565b10156104c85760405162461bcd60e51b8152602060048201526014602482015273496e73756666696369656e742062616c616e636560601b604482015260640161035a565b6104d28282610663565b604080516001600160a01b0384168152602081018390527fcc16f5dbb4873280815c1ee09dbd06736cffcc184412cf7a71a0fdb75d397ca591016103f8565b6000336102e48185856105ca565b600061052a60025490565b905090565b61053a83838361053f565b505050565b61053a8383836001610699565b6001600160a01b0383811660009081526001602090815260408083209386168352929052205460001981146105c457818110156105b557604051637dc7a0d960e11b81526001600160a01b0384166004820152602481018290526044810183905260640161035a565b6105c484848484036000610699565b50505050565b6001600160a01b0383166105f457604051634b637e8f60e11b81526000600482015260240161035a565b6001600160a01b03821661061e5760405163ec442f0560e01b81526000600482015260240161035a565b61053a83838361076e565b6001600160a01b0382166106535760405163ec442f0560e01b81526000600482015260240161035a565b61065f6000838361076e565b5050565b6001600160a01b03821661068d57604051634b637e8f60e11b81526000600482015260240161035a565b61065f8260008361076e565b6001600160a01b0384166106c35760405163e602df0560e01b81526000600482015260240161035a565b6001600160a01b0383166106ed57604051634a1406b160e11b81526000600482015260240161035a565b6001600160a01b03808516600090815260016020908152604080832093871683529290522082905580156105c457826001600160a01b0316846001600160a01b03167f8c5be1e5ebec7d5bd14f71427d1e84f3dd0314c0f7b2291e5b200ac8c7c3b9258460405161076091815260200190565b60405180910390a350505050565b6001600160a01b03831661079957806002600082825461078e91906109f8565b9091555061080b9050565b6001600160a01b038316600090815260208190526040902054818110156107ec5760405163391434e360e21b81526001600160a01b0385166004820152602481018290526044810183905260640161035a565b6001600160a01b03841660009081526020819052604090209082900390555b6001600160a01b03821661082757600280548290039055610846565b6001600160a01b03821660009081526020819052604090208054820190555b816001600160a01b0316836001600160a01b03167fddf252ad1be2c89b69c2b068fc378daa952ba7f163c4a11628f55a4df523b3ef8360405161088b91815260200190565b60405180910390a3505050565b60006020808352835180602085015260005b818110156108c6578581018301518582016040015282016108aa565b506000604082860101526040601f19601f8301168501019250505092915050565b80356001600160a01b03811681146108fe57600080fd5b919050565b6000806040838503121561091657600080fd5b61091f836108e7565b946020939093013593505050565b60006020828403121561093f57600080fd5b610948826108e7565b9392505050565b60008060006060848603121561096457600080fd5b61096d846108e7565b925061097b602085016108e7565b9150604084013590509250925092565b6000806040838503121561099e57600080fd5b6109a7836108e7565b91506109b5602084016108e7565b90509250929050565b600181811c908216806109d257607f821691505b6020821081036109f257634e487b7160e01b600052602260045260246000fd5b50919050565b808201808211156102ea57634e487b7160e01b600052601160045260246000fdfea26469706673582212204fb00153f0f784521ae4f4bb418f5380d169a9182a66e0d5a61b5e5aa367133764736f6c63430008170033",
    "linkReferences": {}
  },
  "methodIdentifiers": {
    "allowance(address,address)": "dd62ed3e",
    "approve(address,address,uint256)": "e1f21c67",
    "approve(address,uint256)": "095ea7b3",
    "balanceOf(address)": "70a08231",
    "burn(address,uint256)": "9dc29fac",
    "decimals()": "313ce567",
    "getTotalSupply()": "c4e41b22",
    "mint(address,uint256)": "40c10f19",
    "name()": "06fdde03",
    "symbol()": "95d89b41",
    "tokenPrices(address)": "204120bc",
    "totalSupply()": "18160ddd",
    "transfer(address,uint256)": "a9059cbb",
    "transferFrom(address,address,uint256)": "23b872dd"
  },
  "id": 23
}